:020000040000fa
:080000000002040000000000f2
:020000040000fa
:04000800c80200002a
:020000040000fa
:04000c00c802000026
:020000040000fa
:04001000c802000022
:020000040000fa
:04001400c80200001e
:020000040000fa
:04001800c80200001a
:020000040000fa
:04001c00c802000016
:020000040000fa
:04002000c802000012
:020000040000fa
:04002400c80200000e
:020000040000fa
:04002800c80200000a
:020000040000fa
:04002c00c802000006
:020000040000fa
:04003000c802000002
:020000040000fa
:04003400c8020000fe
:020000040000fa
:04003800c8020000fa
:020000040000fa
:04003c00c8020000f6
:020000040000fa
:04004000c8020000f2
:020000040000fa
:04004400c8020000ee
:020000040000fa
:04004800c8020000ea
:020000040000fa
:04004c00c8020000e6
:020000040000fa
:04005000c8020000e2
:020000040000fa
:04005400c8020000de
:020000040000fa
:04005800c8020000da
:020000040000fa
:04005c00c8020000d6
:020000040000fa
:04006000c8020000d2
:020000040000fa
:04006400c8020000ce
:020000040000fa
:04006800c8020000ca
:020000040000fa
:04006c00c8020000c6
:020000040000fa
:04007000c8020000c2
:020000040000fa
:04007400c8020000be
:020000040000fa
:04007800c8020000ba
:020000040000fa
:04007c00c8020000b6
:020000040000fa
:04008000c8020000b2
:020000040000fa
:04008400c8020000ae
:020000040000fa
:04008800c8020000aa
:020000040000fa
:04008c00c8020000a6
:020000040000fa
:04009000c8020000a2
:020000040000fa
:04009400c80200009e
:020000040000fa
:04009800c80200009a
:020000040000fa
:04009c00c802000096
:020000040000fa
:0400a000c802000092
:020000040000fa
:0400a400c80200008e
:020000040000fa
:0400a800c80200008a
:020000040000fa
:0400ac00c802000086
:020000040000fa
:0400b000c802000082
:020000040000fa
:0400b400c80200007e
:020000040000fa
:0400b800c80200007a
:020000040000fa
:0400bc00c802000076
:020000040000fa
:0400c000c802000072
:020000040000fa
:0400c400c80200006e
:020000040000fa
:0400c800c80200006a
:020000040000fa
:0400cc00c802000066
:020000040000fa
:0400d000c802000062
:020000040000fa
:0400d400c80200005e
:020000040000fa
:0400d800c80200005a
:020000040000fa
:0400dc00c802000056
:020000040000fa
:0400e000c802000052
:020000040000fa
:0400e400c80200004e
:020000040000fa
:0400e800c80200004a
:020000040000fa
:0400ec00c802000046
:020000040000fa
:0400f000c802000042
:020000040000fa
:0400f400c80200003e
:020000040000fa
:0400f800c80200003a
:020000040000fa
:0400fc00c802000036
:020000040000fa
:04010000c802000031
:020000040000fa
:04010400c80200002d
:020000040000fa
:04010800c802000029
:020000040000fa
:04010c00c802000025
:020000040000fa
:04011000c802000021
:020000040000fa
:04011400c80200001d
:020000040000fa
:04011800c802000019
:020000040000fa
:04011c00c802000015
:020000040000fa
:04012000c802000011
:020000040000fa
:04012400c80200000d
:020000040000fa
:04012800c802000009
:020000040000fa
:04012c00c802000005
:020000040000fa
:04013000c802000001
:020000040000fa
:04013400c8020000fd
:020000040000fa
:04013800c8020000f9
:020000040000fa
:04013c00c8020000f5
:020000040000fa
:04014000c8020000f1
:020000040000fa
:04014400c8020000ed
:020000040000fa
:04014800c8020000e9
:020000040000fa
:04014c00c8020000e5
:020000040000fa
:04015000c8020000e1
:020000040000fa
:04015400c8020000dd
:020000040000fa
:04015800c8020000d9
:020000040000fa
:04015c00c8020000d5
:020000040000fa
:04016000c8020000d1
:020000040000fa
:04016400c8020000cd
:020000040000fa
:04020800c802000028
:020000040000fa
:04020c00c802000024
:020000040000fa
:04021000c802000020
:020000040000fa
:04021400c80200001c
:020000040000fa
:04021800c802000018
:020000040000fa
:04021c00c802000014
:020000040000fa
:04022000c802000010
:020000040000fa
:04022400c80200000c
:020000040000fa
:04022800c802000008
:020000040000fa
:04022c00c802000004
:020000040000fa
:04023000c802000000
:020000040000fa
:04023400c8020000fc
:020000040000fa
:04023800c8020000f8
:020000040000fa
:04023c00c8020000f4
:020000040000fa
:04024000c8020000f0
:020000040000fa
:04024400c8020000ec
:020000040000fa
:04024800c8020000e8
:020000040000fa
:04024c00c8020000e4
:020000040000fa
:04025000c8020000e0
:020000040000fa
:04025400c8020000dc
:020000040000fa
:04025800c8020000d8
:020000040000fa
:04025c00c8020000d4
:020000040000fa
:04026000c8020000d0
:020000040000fa
:04026400c8020000cc
:020000040000fa
:04026800c8020000c8
:020000040000fa
:04026c00c8020000c4
:020000040000fa
:04027000c8020000c0
:020000040000fa
:04027400c8020000bc
:020000040000fa
:04027800c8020000b8
:020000040000fa
:04027c00c8020000b4
:020000040000fa
:04028000c8020000b0
:020000040000fa
:04028400c8020000ac
:020000040000fa
:04028800c8020000a8
:020000040000fa
:04028c00c8020000a4
:020000040000fa
:04029000c8020000a0
:020000040000fa
:04029400c80200009c
:020000040000fa
:04029800c802000098
:020000040000fa
:04029c00c802000094
:020000040000fa
:0402a000c802000090
:020000040000fa
:0402a400c80200008c
:020000040000fa
:0402a800c802000088
:020000040000fa
:0402ac00c802000084
:020000040000fa
:0402b000c802000080
:020000040000fa
:0402b400c80200007c
:020000040000fa
:0402b800c802000078
:020000040000fa
:0402bc00c802000074
:020000040000fa
:0402c000c802000070
:020000040000fa
:0402c400c80200006c
:020000040000fa
:0402c800c802000068
:020000040000fa
:0402cc00c802000064
:020000040000fa
:0402d000c802000060
:020000040000fa
:0402d400c80200005c
:020000040000fa
:0402d800c802000058
:020000040000fa
:0402dc00c802000054
:020000040000fa
:0402e000c802000050
:020000040000fa
:0402e400c80200004c
:020000040000fa
:0402e800c802000048
:020000040000fa
:0402ec00c802000044
:020000040000fa
:0402f000c802000040
:020000040000fa
:0402f400c80200003c
:020000040000fa
:0402f800c802000038
:020000040000fa
:0402fc00c802000034
:020000040000fa
:04030000c80200002f
:020000040000fa
:04030400c80200002b
:020000040000fa
:04030800c802000027
:020000040000fa
:04030c00c802000023
:020000040000fa
:04031000c80200001f
:020000040000fa
:04031400c80200001b
:020000040000fa
:04031800c802000017
:020000040000fa
:04031c00c802000013
:020000040000fa
:04032000c80200000f
:020000040000fa
:04032400c80200000b
:020000040000fa
:04032800c802000007
:020000040000fa
:04032c00c802000003
:020000040000fa
:04033000c8020000ff
:020000040000fa
:04033400c8020000fb
:020000040000fa
:04033800c8020000f7
:020000040000fa
:04033c00c8020000f3
:020000040000fa
:04034000c8020000ef
:020000040000fa
:04034400c8020000eb
:020000040000fa
:04034800c8020000e7
:020000040000fa
:04034c00c8020000e3
:020000040000fa
:04035000c8020000df
:020000040000fa
:04035400c8020000db
:020000040000fa
:04035800c8020000d7
:020000040000fa
:04035c00c8020000d3
:020000040000fa
:04036000c8020000cf
:020000040000fa
:04036400c8020000cb
:020000040000fa
:100400000fc020000eff23000e0188000000000036
:10041000000020000000e000020032000001200087
:100420002002880014000700600207000000e000be
:1004300003003a0080c120000100200002003700c4
:100440000000200001002000810f70000100320038
:1004500014000700000020000000e000020032004d
:100460000000020000000000de0e0200000000009c
:100470000040da000000fe004440a9000000200017
:100480000000e0000300320000002000a00188000e
:100490004440a800000006008a1f78008b1f7800e7
:1004a0000000060091018800800478000000eb0045
:1004b0001a003700e284440032a0b4009905ba0063
:1004c000e284440032a0b4009906ba00e2844400f9
:1004d00032a0b4000006eb00476fde00fd07b2005b
:1004e000636ce10003003a00ebff07000000eb0043
:1004f0000a003700606ce10004003a00005deb0088
:100500008b05e900fdff3e00040037006168e10053
:10051000010032000086eb000b00070019c7ba008b
:100520001905ba000e04e00003003a000a00e000da
:10053000e0ff3a0000000600fe07b2009e018800be
:100540008a047800f5ff3700395dba008b05e900b1
:100550000c003200295dba008b05e900080032006a
:100560000c00e00003003a00e284440032a0b40032
:10057000f5ff370019ddba008b05e900faff3a00f4
:100580008904e800e184440032a0b40000000600c1
:100590000040da000000fe00f6874700889fbe009a
:1005a0008a9fbe008c9fbe008e1f7800f1af9f0017
:1005b00082047800180020000040dd004f04de00b7
:1005c000000044000084d1000000200001f8230056
:1005d0002d010700ffa89700800878000000eb00bd
:1005e000900098006140b900e70207000001be00da
:1005f000b0fd20009104240055020700800578001a
:10060000010578000b0078008a0078004e02070090
:10061000b0b79f00a1b79f000900e000940032002e
:100620000a01be000300780082007800d3030700af
:100630000006be000883e90086003300ffab970088
:10064000648543008c0478000d047800bfb59700e2
:100650002fb797000b0078008e00780086bf9f00b0
:1006600009010700000d7800090078008800780073
:10067000050107001005980064054500bfb097000c
:100680002fb0970001017800800178000b007800fe
:100690008e0078001c0307000002be000c01be00a3
:1006a000c8b79f000900780088007800e4b79f0071
:1006b000f5b79f00140307000001be006fb297005a
:1006c000ffb297000400be00b901070090b79f0079
:1006d00081b79f00bfb097002fb09700010178004d
:1006e000800178000902780088007800040478000e
:1006f000810478000800be0003030700800478002e
:10070000010478000c01be000b0278008e00780016
:10071000c4b79f00d1b79f004fb09700dfb09700dc
:10072000f9020700090278008801780004047800c3
:10073000830478000801be009e0107008004780051
:10074000010478000fbb97000603e9004100330065
:100750009fb597000fb797000b0078008e007800c8
:1007600086bf9f00c8000700000d780009007800d0
:1007700088007800c4000700100598006405450053
:10078000bfb097002fb0970001017800800178007a
:100790000b0078008e007800db0207000002be002c
:1007a0000c01be00c8b79f000900780088007800df
:1007b000e4b79f00f5b79f00d30207000001be0019
:1007c0006fb29700ffb297000400be0078010700e7
:1007d00090b79f0081b79f00bfb097002fb09700e0
:1007e0000101780080017800090278008800780013
:1007f00004047800810478000800be00c2020700eb
:1008000080047800010478000c01be000b0278001f
:100810008e007800c4b79f00d1b79f004fb09700fb
:10082000dfb09700b802070009027800880178005d
:1008300004047800830478000801be005d0107000d
:1008400080047800010478000fbb97000603e900dc
:10085000bfff3b007fa897004f0778004f06be0000
:100860004f05be004f04be006f01b100000006003e
:100870000a01be0003007800820078003f030700f1
:100880000006be000df0a2006aff3700b10278003a
:100890000009eb000002e90007003400b101780014
:1008a0000328e10002003c008302780004095000a4
:1008b0000402e900f9ff3c00050078000000060092
:1008c000889fbe008a9fbe008c9fbe008e1f78004e
:1008d0004400f800070f2000270288003400f800c9
:1008e000811f78000f07780007f02f000338e10020
:1008f00004003200270280004700b300270288006e
:10090000a301880019002000804cdd0013002000a6
:1009100002047800800678008904d100424edd0090
:10092000010578000302e9000480080017000000b8
:100930008a0546004218dd000902e900048008002b
:1009400010000000000000004620c3003b025200df
:10095000df35c100080440001381c200ab825200a1
:10096000264dc5003e85c400bb00cd00bb80cd0038
:100970003a00ca002a80ca000700c9000580c900e1
:10098000ba00cd00ba80cd000a0546000204780006
:100990008301d0008d06e900dfff3c008e07780060
:1009a0004f0078003400f9004400f9004f07780048
:1009b0004f06be004f05be004f04be0000000600fb
:1009c0004600f8005000f8000220200032028800a3
:1009d00002002800130020008019dd000281710050
:1009e00082028800010078000101780026002000c2
:1009f000470020008301e900038008000700000091
:100a00000110e100040034001102be0092087800d9
:100a1000e2307b000489be00878040001219780014
:100a20005000f9004600f90000000600821f78001f
:100a3000849fbe008a1f78004400f800040f200045
:100a400024028800010578000601c3000080e90047
:100a50000080080003000000000000000505f00011
:100a60000401f1003200cd000505f0001001f10095
:100a70003200cd004400f9004f0578004f02be005f
:100a80004f00780000000600e8874700889fbe00fe
:100a90008a9fbe008c9fbe008e1f78000005be009e
:100aa0000200200003702400170207008004780071
:100ab000010478006011b8000a00be008f01070031
:100ac0000000e00037003500090078008800780059
:100ad000b00107008b0107000005be000a00be0040
:100ae000a90107000006be000200200003f0230059
:100af000050207000007780081bf9f000101780010
:100b00000e00780082007800a2010700e0b79f0085
:100b1000f1b79f000c01be00090278008800780040
:100b200004037800810378000600be00a0000700df
:100b30000004be000200200003f023000800be00f5
:100b40006e0107000000e0007b003400020020007e
:100b500003f823000c00be0096000700690107009f
:100b60000005be008a0178000b01780003007800c0
:100b700082007800f3ff2700830f5000e08f5800b9
:100b800002003400f0ff2700010020004f0778002a
:100b90004f06be004f05be004f04be008f00b100df
:100ba000000006000900780088007800de000700d9
:100bb000540107000006be000c00be0072010700d1
:100bc0000005be0009017800880178000a00be0017
:100bd000780107000000e000090032000200200058
:100be00003f823000a00be0071000700450107005a
:100bf0000006be000c00be00630107000005be0039
:100c00000200200003f023000a00be00be0107001e
:100c10000007780081bf9f00010178000e00780076
:100c2000820078005b010700e0b79f00f1b79f00ea
:100c30000a01be00090278008800780004037800e9
:100c4000810378000600be00590007000004be00c2
:100c50000200200003f023000800be002701070067
:100c60000000e000170034000200200003f8230019
:100c70000a00be004f000700220107000006be0068
:100c80008c0178000d017800030078008200780064
:100c900002002800f3ff2f00820f5000838f5800be
:100ca000baff3d000200be004f0778004f06be00ad
:100cb0004f05be004f04be008f00b10000000600cb
:100cc000b8ff37000200200003f0230088007800fe
:100cd0000900780001027800800278000400be005c
:100ce000040107000000e000e5ff3a006fb1970043
:100cf000ffb197008e0278000fba970005007800c8
:100d0000840078002a0007000001be0029000700c7
:100d1000fc0007000000e000d9ff320002002000c4
:100d200003f823000a00be0022000700f5000700b8
:100d30000006be00d2ff37000200200003f02300af
:100d400088007800090078000102780080027800ad
:100d50000400be00e70007000000e00081ff3a0049
:100d60006fb19700ffb197008e0278000fba97001d
:100d700005007800840078000d0007000001be0027
:100d80000c000700df0007000000e00075ff3200e4
:100d90000200200003f823000c00be00050007003d
:100da000d80007000005be006eff370000000500f8
:100db00003f0a200889fbe008a9fbe008c1f7800af
:100dc00039010700400133006450e1004f00320058
:100dd0006420e1005200320003826c0007003b00f7
:100de0000905d0000306d000820f54000c065d00f8
:100df0000200390002003200890178000306780001
:100e00008582550004003d000003fd008103fd00c4
:100e10008502ea008b854200840f720002003b00cd
:100e200060001000e08018006011b8000005eb00c1
:100e30007a28e1000a00390006007800c75ddd006d
:100e4000f707b200878075002d003700828171009e
:100e50000a017800610560008180d1000080d30024
:100e60008502e900f9ff3b00060440008784480042
:100e700002003b0060041400e0841c000988a30009
:100e8000070032008a817100828171006101640073
:100e90008904d1000884d3008b05e80017003700cf
:100ea0000978a30013003a000b00e000130034009f
:100eb0008b05e9000804440089844c000a4474004e
:100ec0000978a3000d003a000b00e0000700340091
:100ed0008b05e9000804440089844c0001003a00b5
:100ee0000b0020000978a300f7ff32000001eb009f
:100ef00002003700828171000a017800af0007000c
:100f00000cf0a70001f0a000f80037006420e10019
:100f100002003a00838f6c00f80033000801be0025
:100f20000200be00f10037000001eb004a0007009c
:100f3000040032000200200003f8230001f0a600a4
:100f40009cff0700000006000081eb002201370033
:100f5000889fbe008a9fbe008c1f7800d2000700c9
:100f6000d900330003866c006450e1002e0032008b
:100f70006420e100330032006150e1002f003200b4
:100f80006120e1003100320085855500eb07b0009b
:100f90000900200008042000050037000804440070
:100fa00089844c000a0031000603430087834b000c
:100fb0000001530081815b00f8ff33000203be0093
:100fc0000800a0000804440089844c00f6ff3900a2
:100fd000c639dd00830173000100320013002000d8
:100fe0008904d1000884d3000998a30005003200c9
:100ff0000800a7000300a0008904d1000884d300e2
:101000008b05e8008904d1000884d3000001eb00bf
:101010000281d2006900070001f0a1000cf0a700d6
:1010200001f0a000b10037006420e100b3003200fd
:101030000801be000200be00f7ff37006120e1009a
:10104000ae0032006000b800f3ff3700000020005f
:1010500001f82700f0ff3700889fbe008a9fbe007e
:101060000003be007b0007008505780082815200e6
:10107000020020006220e10004003a00f307b10002
:10108000040035007718e100040035000600be00ba
:10109000140037006000b8000f003700f50f200083
:1010a000faff2f008502d1000a85d3008301e900f1
:1010b000fcff3b008184620000046500890f74001e
:1010c000f2ff32008582ea000a85ea00818462002c
:1010d000000465003900070007f0a70001f0a00038
:1010e0000081eb000200e0004f05be004f04be008f
:1010f000000006001400200022013700f4ff2f003a
:10110000200137000001be00520007000470a70054
:1011100003f0a1006509b100160032000d00350092
:101120006828e10006003500f0ff2f00f1ff2700de
:101130000300e00013003b00010028000000050050
:1011400000004000818048008502e900fcff3a0071
:1011500008003700f88f420002003c008000eb00de
:10116000000005008100d1000080d3008502e80066
:10117000fcff3a000300e00002003b0060001000aa
:10118000e0801800000006004f89de008201780030
:10119000170137000001eb00afff07000400320029
:1011a0000200200003f8230001f0a70000ff070061
:1011b0000000060004002000f2003700810020003b
:1011c000618055000b003d000b00200061fe2f00e8
:1011d0000100e1001d0034008281710061016400a2
:1011e0008904d1000884d3000000e800faff3a0027
:1011f00071002000610064000300700002006000c4
:101200000900320061044400e0844c000988a50014
:10121000050032008b05e8006808e10002003a0092
:101220008904d1000884d300f20f20000258e100a5
:1012300005003d00c75ddd00f907b200898075003b
:1012400008007800000006000bf827008b007800eb
:1012500000000500c70ade00f107b200f50fb2007a
:1012600008003200e1cf4200020032000170a0000d
:1012700024000500810f7000010032000408050001
:1012800044000500810f700002003a0014000500c0
:101290008502e9000000400081c04800fcff3b00df
:1012a0000170a000240005000004be00e9ff070053
:1012b0000003be000405be000200be00e5ff0700fb
:1012c000844f7500000006000200be006450e1007b
:1012d000050036006420e100020036000968a30022
:1012e00001003a000800be000160a0004f0678002f
:1012f0004f05be004f04be0000000600f0ff2f00a7
:10130000f1ff2700f9ff3700889fbe008a9fbe00cb
:101310008c1f7800e4ff0700ebff330003866c00ae
:101320006450e100240032006420e1002700320014
:101330006150e100220032006120e1002100320012
:101340008b854200eb07b1000134b800003ab800c9
:101350000804420089844a00013ab8000030b8000d
:101360008880400009014a0004003300000040006a
:1013700081804800020149008b05e900c909dd00b0
:10138000830170000100320013002000c814de0049
:101390004814dd004709de001200b200c808de0074
:1013a0000884700085ff070001f0a1000cf0a70081
:1013b00001f0a000cdff37006120e100cfff320037
:1013c0000801be000200be00f7ff37006150e100d7
:1013d000fcff3a00c9ff3700889fbe008a9fbe000d
:1013e0008c9fbe00820578000004be0099ff0700b4
:1013f0000800be006420e1000700390002003a0046
:10140000f1ff2700f0ff2f000160a0001202200072
:1014100032408800550037006120e10003003a00a7
:101420000b00a70001f823005000370001f0a100d5
:1014300002002100936424002eff07000800be0074
:1014400004003500b2fd2000930c2400a700070023
:101450000004be000005eb000b00a6004f0dde00ef
:1014600001f0a1000004be0032982f0023ea2300ff
:10147000a5ff07000001eb0003f023000b00a7000d
:1014800003f823004bfe07001eff07000000a70023
:101490000a00a2003cff07000b00e000030032003e
:1014a0000200200003f0230041fe070001f0a2002b
:1014b0000006be00020020009304240092ff0700f3
:1014c0000801be003bfe0700809fbe000c00be006e
:1014d00022a22a00d3a723008bff07004f01be00e2
:1014e00034fe07000004be0001f0a100020020004d
:1014f00003982300fffe07000800be001900350016
:101500000001be0080ff07000006be00b2c5290032
:10151000e36223007cff070022222b00f3942b00c0
:1015200024fe07000c01be0077ff0700e2732800cd
:1015300083c023001ffe07000c01be0072ff0700de
:1015400042aa2a00a3e22b001afe07000c01be00eb
:101550006dff07000801be006bff07000801be0019
:1015600014fe07000a00a70001f0a2004f06be000b
:101570004f05be004f04be00000006000001eb0056
:1015800095ff3700889fbe008a9fbe00841f7800a9
:1015900045ff07004f00780011003300f0ff2f00d7
:1015a000838f6c0006003b00040565000a00a7005d
:1015b0000800370009f0a6001000200008003700de
:1015c000820f5400838f5c0003003900100020005c
:1015d00001003e000000200009f0a7000000ea0022
:1015e0004f05be004f04be000000e00000000600f2
:1015f000881f7800030478000300e00007003d0026
:1016000060001000e080180060011900e0811900fe
:1016100002003b0001f02d0003003700040007002a
:1016200008f0a70001f0a0004f04780000000600b9
:10163000889fbe008a9fbe00008270000402710075
:1016400004827100260032000004be000200be00c9
:101650006011b8006b092000950220000182cf00c4
:101660000a0039000541b1000082cf0007003900af
:101670000541b1000982cf00040039000541b100e5
:101680000882cf00010039000541b1000542520037
:10169000120032000a003b00828171006101640087
:1016a0008100d1000080d3008984d3000884d30056
:1016b0008b05e8000442e800f7ff3a000700370016
:1016c0000804440089844c000000480081804800e0
:1016d0008b05e9000442e900f9ff3a00b7fe070074
:1016e0004f05be004f04be000000060004002000ad
:1016f00000003700889fbe008a9fbe008c1f7800c4
:101700004f26dd00e8fe0700effe33006120e10018
:10171000430032006250e10041003e003e003900cb
:101720006420e1003c003200058255000f003b00c0
:101730000402e80038003a00800f5300818f5b00fc
:10174000350034000800be0003f0a10001f0a6003f
:1017500003f0a0000cf0a70096fd0700e3fe3700a1
:101760000603430087834b000c46460000055300e8
:1017700081855b00020033000a03be000c00a0005c
:101780000402e900f6ff3b008505780006024300ed
:1017900087824b0004003a006000b80009f0a700ff
:1017a00001f0a000d1fe37000002520081825a00f1
:1017b0000704e000040033000603430087834b0066
:1017c0008b05e900faff3700090578000604be0022
:1017d0000203be006011b80078fe0700e00f52005f
:1017e000e08f5a000700350002003c000c08a300ff
:1017f000040032000601be0003f0a0000cf0a700b8
:101800006cfd07000a85680001f0a1000af0a7003e
:1018100001f0a000b5fe37000800be00b3fe37009f
:10182000100220000cf0a60030408800b3fe370004
:020000040000fa
:10183000004000000004000002000000ff7fff00e5
:101840007fff7f00ff7fff007f018000018001009c
:10185000800180000180ff007fff7f00ff7fff008d
:101860007fff7f0001800100800180000180010076
:1018700080ff7f00ff7fff007fff7f00ff7f010071
:10188000800180000180010080018000ff7fff0057
:101890007fff7f00ff7fff007f018000018001004c
:1018a000800180000180ff007fff7f00ff7fff003d
:1018b0007fff7f0001800100800180000180010026
:1018c00080ff7f00ff7fff007fff7f00ff7f010021
:1018d000800180000180010080018000ff7fff0007
:1018e0007fff7f00ff7fff007f01800001800100fc
:1018f000800180000180ff007fff7f00ff7fff00ed
:101900007fff7f00018001008001800001800100d5
:1019100080ff7f00ff7fff007fff7f00ff7f0100d0
:10192000800180000180010080018000ff7fff00b6
:101930007fff7f00ff7fff007f01800001800100ab
:10194000800180000180ff007fff7f00ff7fff009c
:101950007fff7f0001800100800180000180010085
:1019600080ff7f00ff7fff007fff7f00ff7f010080
:10197000800180000180010080018000ff7fff0066
:101980007fff7f00ff7fff007f018000018001005b
:10199000800180000180ff007fff7f00ff7fff004c
:1019a0007fff7f0001800100800180000180010035
:1019b00080ff7f00ff7fff007fff7f00ff7f010030
:1019c000800180000180010080018000ff7fff0016
:1019d0007fff7f00ff7fff007f018000018001000b
:1019e000800180000180ff007fff7f00ff7fff00fc
:1019f0007fff7f00018001008001800001800100e5
:101a000080ff7f00ff7fff007fff7f00ff7f0100df
:101a1000800180000180010080018000ff7fff00c5
:101a20007fff7f00ff7fff007f01800001800100ba
:101a3000800180000180ff007fff7f00ff7fff00ab
:101a40007fff7f0001800100800180000180010094
:101a500080ff7f00ff7fff007fff7f00ff7f01008f
:101a6000800180000180010080018000ff7fff0075
:101a70007fff7f00ff7fff007f018000018001006a
:101a8000800180000180ff007fff7f00ff7fff005b
:101a90007fff7f0001800100800180000180010044
:101aa00080ff7f00ff7fff007fff7f00ff7f01003f
:101ab000800180000180010080018000ff7fff0025
:101ac0007fff7f00ff7fff007f018000018001001a
:101ad000800180000180ff007fff7f00ff7fff000b
:101ae0007fff7f0001800000000000000000000078
:101af00000000000000000000000000000000000e6
:101b000000000000000000000000000000000000d5
:101b100000000000000000000000000000000000c5
:101b200000000000000000000000000000000000b5
:101d900000000000000a0000000200000000000037
:101da0000008000006000000000000000608000017
:0c1db00002000000000000000000000025
:020000040000fa
:101dbc000600fa000000eb00000f78004900070055
:101dcc007200070000002400100798000000240097
:101ddc00200798000001eb0001a0200080002000eb
:101dec00eaf907000000eb00000f7800090037004b
:101dfc001e009000100078008080d1001e00900022
:101e0c00010878001e0090000080e8001007980080
:101e1c001e0fe800f00f20009e007800808f50000d
:101e2c00f3ff3400c01f240010079800c03f2400ab
:101e3c002007980000102000000f78000e003700db
:101e4c001e009000900078002e0090000108780091
:101e5c001e0090000080e900100798002e009000f2
:101e6c008000eb00110098002e00900064005000e0
:101e7c00200798001e0fe9001e0078000000e0000b
:101e8c00efff3c0003f02f0002a020000100240013
:101e9c008000200087fa0700010024008000200049
:101eac00c4fa0700020024000100240000102000e6
:101ebc00dbfa07000280200001002400000820004b
:101ecc006ffa070001408000700220000088b90002
:101edc0000007800cf80de00104088002140880090
:101eec00ffff37000000fa0090022000303a880013
:101efc00213a8000f0f32f0000806000203a880027
:101f0c00213a800000fe2f0000806000203a8800fb
:101f1c004827ef0040a7a9001200200080072000ee
:101f2c00a109200033742000804978008149780091
:101f3c008249780012002000600420007105200006
:101f4c002374200080497800814978008249780008
:101f5c0000000000113a8000000027008080600023
:101f6c0000002100808f5000faff3a0000000000b2
:101f7c00113a800000022000008060000000e000a8
:101f8c00fbff32000080fa00000006000000fa009f
:101f9c00c862a900c842a8000080fa000000060030
:020000040000fa
:0200000401f009
:04000c008000000070
:020000040000fa
:0200000401f009
:040010006700000085
:020000040000fa
:0200000401f009
:040014005f00000089
:00000001FF
