:020000040000fa
:080000000002040000000000f2
:020000040000fa
:04000800c80200002a
:020000040000fa
:04000c00c802000026
:020000040000fa
:04001000c802000022
:020000040000fa
:04001400c80200001e
:020000040000fa
:04001800c80200001a
:020000040000fa
:04001c00c802000016
:020000040000fa
:04002000c802000012
:020000040000fa
:04002400c80200000e
:020000040000fa
:04002800c80200000a
:020000040000fa
:04002c00c802000006
:020000040000fa
:04003000c802000002
:020000040000fa
:04003400c8020000fe
:020000040000fa
:04003800c8020000fa
:020000040000fa
:04003c00c8020000f6
:020000040000fa
:04004000c8020000f2
:020000040000fa
:04004400c8020000ee
:020000040000fa
:04004800c8020000ea
:020000040000fa
:04004c00c8020000e6
:020000040000fa
:04005000c8020000e2
:020000040000fa
:04005400c8020000de
:020000040000fa
:04005800c8020000da
:020000040000fa
:04005c00c8020000d6
:020000040000fa
:04006000c8020000d2
:020000040000fa
:04006400c8020000ce
:020000040000fa
:04006800c8020000ca
:020000040000fa
:04006c00c8020000c6
:020000040000fa
:04007000c8020000c2
:020000040000fa
:04007400c8020000be
:020000040000fa
:04007800c8020000ba
:020000040000fa
:04007c00c8020000b6
:020000040000fa
:04008000c8020000b2
:020000040000fa
:04008400c8020000ae
:020000040000fa
:04008800c8020000aa
:020000040000fa
:04008c00c8020000a6
:020000040000fa
:04009000c8020000a2
:020000040000fa
:04009400c80200009e
:020000040000fa
:04009800c80200009a
:020000040000fa
:04009c00c802000096
:020000040000fa
:0400a000c802000092
:020000040000fa
:0400a400c80200008e
:020000040000fa
:0400a800c80200008a
:020000040000fa
:0400ac00c802000086
:020000040000fa
:0400b000c802000082
:020000040000fa
:0400b400c80200007e
:020000040000fa
:0400b800c80200007a
:020000040000fa
:0400bc00c802000076
:020000040000fa
:0400c000c802000072
:020000040000fa
:0400c400c80200006e
:020000040000fa
:0400c800c80200006a
:020000040000fa
:0400cc00c802000066
:020000040000fa
:0400d000c802000062
:020000040000fa
:0400d400c80200005e
:020000040000fa
:0400d800c80200005a
:020000040000fa
:0400dc00c802000056
:020000040000fa
:0400e000c802000052
:020000040000fa
:0400e400c80200004e
:020000040000fa
:0400e800c80200004a
:020000040000fa
:0400ec00c802000046
:020000040000fa
:0400f000c802000042
:020000040000fa
:0400f400c80200003e
:020000040000fa
:0400f800c80200003a
:020000040000fa
:0400fc00c802000036
:020000040000fa
:04010000c802000031
:020000040000fa
:04010400c80200002d
:020000040000fa
:04010800c802000029
:020000040000fa
:04010c00c802000025
:020000040000fa
:04011000c802000021
:020000040000fa
:04011400c80200001d
:020000040000fa
:04011800c802000019
:020000040000fa
:04011c00c802000015
:020000040000fa
:04012000c802000011
:020000040000fa
:04012400c80200000d
:020000040000fa
:04012800c802000009
:020000040000fa
:04012c00c802000005
:020000040000fa
:04013000c802000001
:020000040000fa
:04013400c8020000fd
:020000040000fa
:04013800c8020000f9
:020000040000fa
:04013c00c8020000f5
:020000040000fa
:04014000c8020000f1
:020000040000fa
:04014400c8020000ed
:020000040000fa
:04014800c8020000e9
:020000040000fa
:04014c00c8020000e5
:020000040000fa
:04015000c8020000e1
:020000040000fa
:04015400c8020000dd
:020000040000fa
:04015800c8020000d9
:020000040000fa
:04015c00c8020000d5
:020000040000fa
:04016000c8020000d1
:020000040000fa
:04016400c8020000cd
:020000040000fa
:04020800c802000028
:020000040000fa
:04020c00c802000024
:020000040000fa
:04021000c802000020
:020000040000fa
:04021400c80200001c
:020000040000fa
:04021800c802000018
:020000040000fa
:04021c00c802000014
:020000040000fa
:04022000c802000010
:020000040000fa
:04022400c80200000c
:020000040000fa
:04022800c802000008
:020000040000fa
:04022c00c802000004
:020000040000fa
:04023000c802000000
:020000040000fa
:04023400c8020000fc
:020000040000fa
:04023800c8020000f8
:020000040000fa
:04023c00c8020000f4
:020000040000fa
:04024000c8020000f0
:020000040000fa
:04024400c8020000ec
:020000040000fa
:04024800c8020000e8
:020000040000fa
:04024c00c8020000e4
:020000040000fa
:04025000c8020000e0
:020000040000fa
:04025400c8020000dc
:020000040000fa
:04025800c8020000d8
:020000040000fa
:04025c00c8020000d4
:020000040000fa
:04026000c8020000d0
:020000040000fa
:04026400c8020000cc
:020000040000fa
:04026800c8020000c8
:020000040000fa
:04026c00c8020000c4
:020000040000fa
:04027000c8020000c0
:020000040000fa
:04027400c8020000bc
:020000040000fa
:04027800c8020000b8
:020000040000fa
:04027c00c8020000b4
:020000040000fa
:04028000c8020000b0
:020000040000fa
:04028400c8020000ac
:020000040000fa
:04028800c8020000a8
:020000040000fa
:04028c00c8020000a4
:020000040000fa
:04029000c8020000a0
:020000040000fa
:04029400c80200009c
:020000040000fa
:04029800c802000098
:020000040000fa
:04029c00c802000094
:020000040000fa
:0402a000c802000090
:020000040000fa
:0402a400c80200008c
:020000040000fa
:0402a800c802000088
:020000040000fa
:0402ac00c802000084
:020000040000fa
:0402b000c802000080
:020000040000fa
:0402b400c80200007c
:020000040000fa
:0402b800c802000078
:020000040000fa
:0402bc00c802000074
:020000040000fa
:0402c000c802000070
:020000040000fa
:0402c400c80200006c
:020000040000fa
:0402c800c802000068
:020000040000fa
:0402cc00c802000064
:020000040000fa
:0402d000c802000060
:020000040000fa
:0402d400c80200005c
:020000040000fa
:0402d800c802000058
:020000040000fa
:0402dc00c802000054
:020000040000fa
:0402e000c802000050
:020000040000fa
:0402e400c80200004c
:020000040000fa
:0402e800c802000048
:020000040000fa
:0402ec00c802000044
:020000040000fa
:0402f000c802000040
:020000040000fa
:0402f400c80200003c
:020000040000fa
:0402f800c802000038
:020000040000fa
:0402fc00c802000034
:020000040000fa
:04030000c80200002f
:020000040000fa
:04030400c80200002b
:020000040000fa
:04030800c802000027
:020000040000fa
:04030c00c802000023
:020000040000fa
:04031000c80200001f
:020000040000fa
:04031400c80200001b
:020000040000fa
:04031800c802000017
:020000040000fa
:04031c00c802000013
:020000040000fa
:04032000c80200000f
:020000040000fa
:04032400c80200000b
:020000040000fa
:04032800c802000007
:020000040000fa
:04032c00c802000003
:020000040000fa
:04033000c8020000ff
:020000040000fa
:04033400c8020000fb
:020000040000fa
:04033800c8020000f7
:020000040000fa
:04033c00c8020000f3
:020000040000fa
:04034000c8020000ef
:020000040000fa
:04034400c8020000eb
:020000040000fa
:04034800c8020000e7
:020000040000fa
:04034c00c8020000e3
:020000040000fa
:04035000c8020000df
:020000040000fa
:04035400c8020000db
:020000040000fa
:04035800c8020000d7
:020000040000fa
:04035c00c8020000d3
:020000040000fa
:04036000c8020000cf
:020000040000fa
:04036400c8020000cb
:020000040000fa
:100400006f8020000eff23000e0188000000000016
:10041000000020000000e000020032000001200087
:100420002002880014000700da0007000000e00046
:1004300003003a00006020000100200002003700a5
:100440000000200001002000810f70000100320038
:1004500014000700000020000000e000020032004d
:100460000000020000000000ba08020000000000c6
:100470000040da000000fe004440a90000202000f7
:100480000000e0000300320000002000a00188000e
:100490004440a800000006008a1f78008b1f7800e7
:1004a0000000060091018800800478000000eb0045
:1004b0001a003700e284440032a0b4009905ba0063
:1004c000e284440032a0b4009906ba00e2844400f9
:1004d00032a0b4000006eb00476fde00fd07b2005b
:1004e000636ce10003003a00ebff07000000eb0043
:1004f0000a003700606ce10004003a00005deb0088
:100500008b05e900fdff3e00040037006168e10053
:10051000010032000086eb000b00070019c7ba008b
:100520001905ba000e04e00003003a000a00e000da
:10053000e0ff3a0000000600fe07b2009e018800be
:100540008a047800f5ff3700395dba008b05e900b1
:100550000c003200295dba008b05e900080032006a
:100560000c00e00003003a00e284440032a0b40032
:10057000f5ff370019ddba008b05e900faff3a00f4
:100580008904e800e184440032a0b40000000600c1
:100590000040da000000fe00b10278000009eb0024
:1005a0000002e90007003400b10178000328e100ef
:1005b00002003c0083027800040950000402e900b4
:1005c000f9ff3c000500780000000600889fbe008f
:1005d0008a9fbe008c9fbe008e1f78004400f800ea
:1005e000070f2000270288003400f800811f7800e0
:1005f0000f07780007f02f000338e10004003200f5
:10060000270280004700b30027028800a30188006a
:1006100019002000804cdd00130020000204780047
:10062000800678008904d100424edd000105780083
:100630000302e90004800800170000008a05460054
:100640004218dd000902e9000480080010000000e3
:10065000000000004620c3003b025200df35c1000d
:10066000080440001381c200ab825200264dc50031
:100670003e85c400bb00cd00bb80cd003a00ca005f
:100680002a80ca000700c9000580c900ba00cd0051
:10069000ba80cd000a054600020478008301d0002c
:1006a0008d06e900dfff3c008e0778004f007800e0
:1006b0003400f9004400f9004f0778004f06be00ef
:1006c0004f05be004f04be00000006004600f800c3
:1006d0005000f800022020003202880002002800aa
:1006e000130020008019dd00028171008202880061
:1006f000010078000101780026002000470020005a
:100700008301e90003800800070000000110e100f8
:10071000040034001102be0092087800e2307b0031
:100720000489be0087804000121978005000f9004b
:100730004600f90000000600821f7800849fbe007a
:100740008a1f78004400f800040f2000240288006b
:10075000010578000601c3000080e9000080080060
:1007600003000000000000000505f0000401f10096
:100770003200cd000505f0001001f1003200cd007f
:100780004400f9004f0578004f02be004f0078008a
:08079000000006000000050056
:020000040000fa
:10080000ff7f000000000000f67f0000dcfc00001d
:10081000d97f0000b8f90000a77f000095f600001e
:10082000627f000074f300000a7f000055f00000b2
:100830009d7e000038ed00001e7e00001eea0000d4
:100840008a7d000007e70000e47c0000f4e300007c
:100850002a7c0000e6e000005d7b0000dcdd00009b
:100860007d7a0000d8da00008a790000d9d700002c
:1008700084780000e1d400006c770000efd1000024
:100880004276000004cf00000575000021cc000076
:10089000b673000046c900005572000073c6000020
:1008a000e3700000a9c300005f6f0000e9c0000012
:1008b000ca6d000032be0000246c000085bb000041
:1008c0006e6a0000e3b80000a76800004cb60000a4
:1008d000cf660000c0b30000e864000040b1000033
:1008e000f2620000ccae0000ec60000065ac0000dd
:1008f000d75e00000aaa0000b45c0000bda700009b
:10090000825a00007ea50000435800004ca300005e
:10091000f655000029a100009b530000149f000021
:10092000345100000e9d0000c04e0000189b0000d6
:10093000404c000031990000b44900005997000074
:100940001d470000929500007b440000dc930000ee
:10095000ce41000036920000173f0000a190000039
:10096000573c00001d8f00008d390000ab8d00004a
:10097000ba3600004a8c0000df330000fb8a00001a
:10098000fc300000be890000112e00009488000099
:100990001f2b00007c8700002728000076860000bf
:1009a000282500008385000024220000a384000085
:1009b0001a1f0000d68300000b1c00001c830000df
:1009c000f918000076820000e2150000e3810000c3
:1009d000c812000063810000ab0f0000f780000028
:1009e0008c0c00009e8000006b0900005980000004
:1009f0004806000028800000240300000a80000050
:100a00000000000000800000dcfc00000a80000004
:100a1000b8f900002880000095f600005980000019
:100a200074f300009e80000055f00000f780000085
:100a300038ed0000638100001eea0000e381000041
:100a400007e7000076820000f5e300001c83000049
:100a5000e6e00000d6830000dcdd0000a384000097
:100a6000d8da000083850000d9d700007686000020
:100a7000e1d400007c870000efd1000094880000e2
:100a800004cf0000be89000021cc0000fb8a0000da
:100a900046c900004a8c000073c60000ab8d000000
:100aa000a9c300001d8f0000e9c00000a190000054
:100ab00032be00003692000085bb0000dc930000cf
:100ac000e3b80000939500004cb600005a97000070
:100ad000c0b300003199000040b10000189b000035
:100ae000ccae00000e9d000065ac0000149f00001d
:100af0000aaa000029a10000bda700004ca3000025
:100b00007ea500007ea500004ca30000bda700004c
:100b100029a100000aaa0000149f000065ac000093
:100b20000e9d0000ccae0000189b000040b10000fc
:100b300031990000c0b300005a9700004cb6000085
:100b400093950000e3b80000dc93000085bb000033
:100b50003692000032be0000a1900000e9c0000003
:100b60001d8f0000a9c30000ab8d000073c60000fc
:100b70004a8c000046c90000fb8a000021cc00001e
:100b8000bf89000004cf000094880000efd100006e
:100b90007c870000e1d4000076860000d9d70000f1
:100ba00083850000d8da0000a3840000dcdd0000ab
:100bb000d6830000e6e000001c830000f5e300009f
:100bc0007682000007e70000e38100001eea0000d3
:100bd0006381000038ed0000f780000055f0000050
:100be0009e80000074f300005980000095f600001c
:100bf00028800000b8f900000a800000dcfc00003a
:020000040000fa
:100c0000004000000004000002000000ff7fff0021
:100c10007fff7f00ff7fff007f01800001800100d8
:100c2000800180000180ff007fff7f00ff7fff00c9
:100c30007fff7f00018001008001800001800100b2
:100c400080ff7f00ff7fff007fff7f00ff7f0100ad
:100c5000800180000180010080018000ff7fff0093
:100c60007fff7f00ff7fff007f0180000180010088
:100c7000800180000180ff007fff7f00ff7fff0079
:100c80007fff7f0001800100800180000180010062
:100c900080ff7f00ff7fff007fff7f00ff7f01005d
:100ca000800180000180010080018000ff7fff0043
:100cb0007fff7f00ff7fff007f0180000180010038
:100cc000800180000180ff007fff7f00ff7fff0029
:100cd0007fff7f0001800100800180000180010012
:100ce00080ff7f00ff7fff007fff7f00ff7f01000d
:100cf000800180000180010080018000ff7fff00f3
:100d00007fff7f00ff7fff007f01800001800100e7
:100d1000800180000180ff007fff7f00ff7fff00d8
:100d20007fff7f00018001008001800001800100c1
:100d300080ff7f00ff7fff007fff7f00ff7f0100bc
:100d4000800180000180010080018000ff7fff00a2
:100d50007fff7f00ff7fff007f0180000180010097
:100d6000800180000180ff007fff7f00ff7fff0088
:100d70007fff7f0001800100800180000180010071
:100d800080ff7f00ff7fff007fff7f00ff7f01006c
:100d9000800180000180010080018000ff7fff0052
:100da0007fff7f00ff7fff007f0180000180010047
:100db000800180000180ff007fff7f00ff7fff0038
:100dc0007fff7f0001800100800180000180010021
:100dd00080ff7f00ff7fff007fff7f00ff7f01001c
:100de000800180000180010080018000ff7fff0002
:100df0007fff7f00ff7fff007f01800001800100f7
:100e0000800180000180ff007fff7f00ff7fff00e7
:100e10007fff7f00018001008001800001800100d0
:100e200080ff7f00ff7fff007fff7f00ff7f0100cb
:100e3000800180000180010080018000ff7fff00b1
:100e40007fff7f00ff7fff007f01800001800100a6
:100e5000800180000180ff007fff7f00ff7fff0097
:100e60007fff7f0001800100800180000180010080
:100e700080ff7f00ff7fff007fff7f00ff7f01007b
:100e8000800180000180010080018000ff7fff0061
:100e90007fff7f00ff7fff007f0180000180010056
:100ea000800180000180ff007fff7f00ff7fff0047
:100eb0007fff7f00018000000000000000000000b4
:100ec0000000000000000000000000000000000022
:100ed0000000000000000000000000000000000012
:100ee0000000000000000000000000000000000002
:100ef00000000000000000000000000000000000f2
:101160000000000000080000060000000000000071
:04117000000000007b
:020000040000fa
:101174000600fa000000eb00000f780047000700ab
:1011840000002400100798000000240020079800a5
:101194000000eb00000f7800090037001e009000eb
:1011a400100078008080d1001e00900001087800b3
:1011b4001e0090000080e800100798001e0fe80051
:1011c400f00f20009e007800808f5000f3ff340061
:1011d400c01f240010079800c03f24002007980077
:1011e40000102000000f78000e0037001e00900051
:1011f400900078002e009000010878001e009000f6
:101204000080e900100798002e0090008000eb0099
:10121400110098002e0090006400500020079800f0
:101224001e0fe9001e0078000000e000efff3c0004
:101234000000200080007800004028008101780030
:10124400000178000100240080002000defc07007b
:1012540001002400800020001bfd07000200240080
:10126400010024000010200032fd0700028020004d
:101274000100240000082000c6fc07000140800093
:10128400700220000088b90000007800cf80de00e2
:101294001040880021408800ffff37000000fa005a
:1012a40090022000303a8800213a8000f0f32f00a9
:1012b40000806000203a8800213a800000fe2f0060
:1012c40000806000203a88004827ef0040a7a9006a
:1012d4001200200080072000a109200033742000a0
:1012e4008049780081497800824978001200200002
:1012f40060042000710520002374200080497800d8
:10130400814978008249780000000000113a800089
:10131400000027008080600000002100808f5000c2
:10132400faff3a0000000000113a80000002200099
:10133400008060000000e000fbff32000080fa0043
:04134400000006009f
:020000040000fa
:0200000401f009
:04000c008000000070
:020000040000fa
:0200000401f009
:040010006700000085
:020000040000fa
:0200000401f009
:040014005f00000089
:00000001FF
